:020000040000FA
:1000000038230020510100006B010000F5030000BF
:1000100000000000000000000000000000000000E0
:100020000000000000000000000000009504000037
:1000300000000000000000000F010000B5040000F7
:10004000550400005D040000650400007104000018
:100050002F020000BD0B0000DD0B0000E90B0000CB
:10006000150400001D0400007D0400008904000048
:10007000050400000D040000A50B0000AD0B0000FE
:10008000B50B000075010000C50B0000CD0B000092
:10009000D50B00004D040000110C0000750100009C
:1000A0000F02000075010000FD0B0000F50B0000C1
:1000B0001B02000075010000A502000023020000E1
:1000C0000448854600F08AF8004800470102000015
:1000D000C046C04638230020084B19680868203005
:1000E00080F30988022080F31488BFF36F8F3FBC30
:1000F000AE4608BC04BC62B61847000008000020E9
:10010000EFF3108072B6704780F310887047EFF3FA
:1001100009800E4B1A6820381060F0C044464D46E6
:1001200056465F46F0C008B572B601F0D9F962B61E
:100130000CBC116808681030F0C8A046A946B24649
:10014000BB4680F309882038F0C818470800002013
:1001500009480A4A002100A1814200D90244084806
:1001600002600848804708480047FEE7FEE7FEE7D0
:10017000FEE7FEE7FEE700000000002000000000B0
:1001800008ED00E0650B0000C100000030B50B4633
:10019000014600202022012409E00D46D5409D4261
:1001A00005D31D469540491B2546954040191546E7
:1001B000521E002DF1DC30BD03460B439B0703D0DC
:1001C00009E008C9121F08C0042AFAD203E00B781C
:1001D0000370401C491C521EF9D27047064C012581
:1001E000064E05E0E36807CC2B430C3C98471034DF
:1001F000B442F7D3FFF768FF381800005818000022
:1002000010B500F0AFFC00F083FD002010BD10B56C
:10021000C046C046C046C04610BD10B5C046C04628
:1002200010BD10B5C046C046C046C04610BD10B592
:10023000C046C04610BD1CB501211F2000F0DAFBEE
:10024000012000F035F8042000F0F0FB00216846A2
:10025000017004214170032181700C21C17000F0F4
:100260002DFB04216846017100214171817101A8B3
:1002700000F032F91CBD1CB501211C2000F0BAFBB6
:10028000002168464170C1700121017103210120E4
:10029000000300F045F86A4603210120000300F046
:1002A0004DF81CBD10B5C046C046C046C04610BD86
:1002B00010B501460020084A084BDA62084ADA62A3
:1002C0001A46126A0C239A438B000C2423401A43CB
:1002D000024B1A6210BD00005A5A00000000024092
:1002E000A5A500001CB501240948032100234022D4
:1002F0000091019007A1094801F04EF90446012C34
:1003000002D00020C0431CBD01F0A8F80020FAE78D
:10031000000000204C65645461736B0025040000EC
:1003200070B504460D46044960180122294600F0C4
:10033000B2F8002070BD0000140D024070B50446F4
:100340000E461546214960180022314600F0A3F8F8
:1003500000201F496118B20088502A781B49091FE4
:100360006018314600F097F86A7818490C3960181F
:10037000314600F090F8AA781449103160183146DF
:1003800000F089F8EA78114914316018314600F01C
:1003900082F82A790D4918316018314600F07BF84F
:1003A0006A790A4920316018314600F074F809482A
:1003B00080680121C9038843A979C9030122D203B6
:1003C0001140084303498860002070BD0C0D0240B5
:1003D000000C0240000F024070B504460D4604496F
:1003E00060180122294600F056F8002070BD000078
:1003F000100D024008B50020009000BF00980028B2
:10040000FCD008BD10B5C046C04610BD10B5C046F2
:10041000C04610BD10B5C046C04610BD10B5C046A0
:10042000C04610BD11E0032101200003FFF7D4FFF7
:10043000FF20F53000F0F0FF032101200003FFF75B
:100440006FFFFF20F53000F0E7FFECE710B5C04686
:10045000C04610BD10B5C046C04610BD10B5C04660
:10046000C04610BD10B5C046C046C046C04610BD0F
:1004700010B5C046C046C046C04610BD10B5C04607
:10048000C046C046C04610BD10B5C046C046C046B6
:10049000C04610BD704710B5012A05D1036801247C
:1004A0008C402343036004E0036801248C40A34391
:1004B000036010BD10B5FFF723FE044601F09AF863
:1004C000002803D001200007024948602046FFF7BA
:1004D0001BFE10BD00ED00E070B50446002520783D
:1004E000030000F0C9FB0504050C10181C0018E0FF
:1004F000032000F007FB032000F0CEFA11E00320F8
:1005000000F0B8FA0DE00321084600F009FB0320D3
:1005100000F0D2FA05E0072000F05AFA01E00425C5
:1005200000BF00BF2078012100F00CF8207800F017
:10053000D3FA607800F09AF9A07800F0ABF9284679
:1005400070BD0000F8B505460C46002700F088FB9A
:10055000002C01D0012000E0002004466248066A19
:10056000032D55D006DC002D09D0012D1AD0022D07
:1005700071D139E0042D70D0482DF9D193E05A485B
:10058000006840084000E107C90F08435649086069
:1005900000BF002C05D05448C0680005C00F0028DB
:1005A000F7D09BE05048006A0121090788434018B2
:1005B0004D4908624D48C068032108434B49C86053
:1005C0004948006802218843610002221140084323
:1005D0004549086000BF002C05D04348006940062B
:1005E000C00F0028F7D079E03F4800680421884315
:1005F000A1000422114008433B49086000BF002CC1
:1006000005D039484069C004C00F0028F7D065E024
:100610003548006A012109078843401832490862B9
:100620003348C0680321890308433149C8602E4814
:10063000006808218843E1000822114008432A4944
:10064000086000BF002C05D0274880694006C00F15
:100650000028F7D042E03FE0FFE72348006A01218D
:10066000090488434018204908622248006840086D
:100670004000401C1F490860142000F01BFB1A4872
:1006800000681021884321011022114008431649B7
:10069000086000BF002C05D01348C06B4003C00F9A
:1006A0000028F7D01AE01048403080690121090382
:1006B0008843210301221203114008430A494031B3
:1006C000886100BF002C06D00748403080690005D3
:1006D000C00F0028F6D001E0042700BF00BF024889
:1006E00006623846F8BD000000200040401D024070
:1006F000800D02400024004030B589B0002414224F
:10070000564904A8FFF758FD544814300068039078
:1007100000200090019002905148018868460181B4
:100720004F4841886846C1804D488188684681802D
:100730004B48C18868464180494820300188684656
:100740000180484800680006450F2B0000F094FA2D
:1007500005042E303E4178004248C0684005400DF7
:1007600069460989884201D1089C1EE03D48C0685D
:100770004005400D6946C988884201D1079C14E0B4
:100780003848C0684005400D69468988884201D1D3
:10079000069C0AE03348C0684005400D6946498818
:1007A000884201D1059C00E0049C4BE02E4C49E0BE
:1007B000684600882B4949698905890D884202D11C
:1007C0006846C48901E0684684893BE00124E4036B
:1007D00038E02448C06B8007800F032829D1684681
:1007E00000892049C9684905490D884201D1089C02
:1007F00020E06846C0881B49C9684905490D884200
:1008000001D1079C16E0684680881649C9684905E9
:10081000490D884201D1069C0CE068464088114988
:10082000C9684905490D884201D1059C02E0049C34
:1008300000E00D4C0B48C06BC005000F444301E0C5
:10084000002400BF00BF074800684005410F204654
:10085000C8400446204609B030BD00002018000002
:10086000000C10000020004000127A0010B5044671
:1008700000F0F6F9064800680721090288432102C2
:10088000072212021140084301490860002010BDF0
:100890000020004010B5044600F0E2F90648006868
:1008A0000321C9028843E1020322D2021140084316
:1008B00001490860002010BD002000401EB501461F
:1008C000002200200090019002903D480388684675
:1008D00003813B4843886846C3803948838868461B
:1008E00083803748C38868464380887803282DD1A1
:1008F00068460089334BDB685B055B0D984202D18B
:10090000C878022820DC6846C0882E4BDB685B056F
:100910005B0D984202D1C878022815DC68468088B1
:10092000284BDB685B055B0D984202D1C878032831
:100930000ADC68464088234BDB685B055B0D984208
:100940000CD1C878062809DD06201EBDC8781E4BCC
:1009500058431E4B984201D90620F6E71948C06B50
:1009600003235B0398430B785B0303246403234056
:100970001843144BD8631846C06B1C2398434B781C
:100980009B001C24234018430E4BD8631846C06BB1
:10099000FF23E1339843CB785B01FF24E13423400C
:1009A0001843084BD8631846C06B800880008B78CA
:1009B0009B079B0F1843034BD8631046C5E7000005
:1009C000000C10000020004000127A00006CDC02D5
:1009D00010B501460020064AD26B0723DB039A4379
:1009E000CB030724E40323401A43014BDA6310BD11
:1009F0000020004070B504460D462020204000280D
:100A000009D020212046884304462A46214606482C
:100A1000FFF741FD05E02A4621460348001FFFF786
:100A20003AFD002070BD0000242000400146482906
:100A30000DD04A000D4BD21812885005400D0C4ABB
:100A4000D268D20AD2020243094BDA600CE0074AAC
:100A500052899005800D064A40329269920A9202AC
:100A60000243034B40339A6100207047000C100092
:100A70000020004010B501460020064A52690323B9
:100A80009B029A438B020324A40223401A43014B86
:100A90005A6110BD0020004010B501460020054AF3
:100AA000126930239A430B01302423401A43014B2F
:100AB0001A6110BD0020004010B501460020054A13
:100AC000926930239A430B01302423401A43014B8F
:100AD0009A6110BD0020004070B5044600252646EE
:100AE00000F0BEF806480068E02188437101E0226A
:100AF000114008430249086000F02CF8284670BDF8
:100B00000020004001460020044A12699208920029
:100B10008B079B0F1A43014B1A617047002000405E
:100B200030B5024600200A4B9B690C24A343940075
:100B30000C252C402343064CA36123469B699B084C
:100B40009B008C07A40F2343014CA36130BD000020
:100B50000020004010B5FFF7CFFD0149086010BD2F
:100B60000400002010B50D4949888805800D0C4906
:100B70004969890A89020143094A516107492039B3
:100B800009894805400D1146C968C90AC9020143CF
:100B9000D160FFF7DFFF00F03FF810BD200C100020
:100BA0000020004010B5C046C04610BD10B5C0467C
:100BB000C04610BD10B5C046C04610BD10B5C046F9
:100BC000C04610BD10B5C046C04610BD10B5C046E9
:100BD000C04610BD10B5C046C04610BD10B5C046D9
:100BE000C046C046C04610BD10B5C046C046C0464F
:100BF000C04610BD10B5C046C04610BD10B5C046B9
:100C0000C046C046C046C046C046C046C04610BDED
:100C100010B5C046C04610BD0E49086A096A0122D7
:100C20001207914389180B4A11620B49C9680B4A94
:100C30001140094AD16011460968B0221143064AA1
:100C400011601146096AB0221143034A1162014939
:100C50000862704700200040401D02404FFF000026
:100C60000248034988600348886070475A5A000068
:100C700000200040A5A5000030B47446641E25780D
:100C8000641CAB4204D3635D5B00E31830BC1847BF
:100C90001D46F8E702E008C8121F08C1002AFAD171
:100CA00070477047002001E001C1121F002AFBD1EC
:100CB0007047000070B50546114812494861002090
:100CC0008861052008610FE000200E4988610E4907
:100CD0000E480068FFF75AFA012109060C1A00BFF6
:100CE00008488069A042FBD828466D1E0028EBD139
:100CF00004480069400840000249086170BD0000D6
:100D0000FFFFFF0000E000E0A086010004000020DB
:100D1000FFF791FAFFF7AFFAFFF7E4FA00BFFEE73B
:100D2000F8B505460E461748076817480068001DC5
:100D300000F09AFA681C002808D1002E06D012484C
:100D40000168091D114800F0CEFA1AE07C190E481E
:100D500000684460BC4207D20B480168091D0C487A
:100D6000006800F0A5FA0CE007480168091D094871
:100D7000006800F09DFA08480068844201D20648E5
:100D80000460F8BD1C0000200800002020010020A5
:100D9000100000200C0000203800002010B5044690
:100DA00000F0AEFA20480068401C1F4908601F4848
:100DB0000068002808D11D48046008460068012822
:100DC0000ED100F00DF90BE019480068002807D19A
:100DD00016480068C06AE16A884201D81348046076
:100DE00014480068401C134908601349E06A096808
:100DF000884202D91049E06A08601422E16A51432E
:100E00000E4A8818211D00F06EFA00F087FA084893
:100E10000068002807D005480068C06AE16A884277
:100E200001D200F0EDFA10BD1800002008000020EB
:100E30002400002034000020200000206C0000204E
:100E400010B516E000F05CFA0C48C068C468201DBC
:100E500000F00AFA0A480068401E0949086009487B
:100E60000068401E0749086000F058FA204600F06C
:100E70000BF8044800680028E4D110BD0C010020E4
:100E8000180000201400002010B50446206B00F06C
:100E900059FA204600F056FA10BD000030B5012383
:100EA0005B0317484407640F002C05D0C01DC00821
:100EB000C000134C041B1B1B0246124C2260002472
:100EC000104D6C60D0180838C008C0000E4C20606F
:100ED00000240D4D2D686C600B4D2D682C60114663
:100EE000441A4C60084C24680C60084D4C682C6017
:100EF000074D4C682C600124E407064D2C6030BD82
:100F0000340100204800002050000020580000203C
:100F1000540000206400002000BFFFF791FF034849
:100F200000680128F9D900F06BFAF6E76C000020A0
:100F3000FFB581B00E460A9F0C9C216B0398401EA2
:100F40008000081800900098C008C0000090009829
:100F50004007400F002801D1012000E000200028B8
:100F600002D172B600BFFEE7002E11D0002508E0C6
:100F7000715D204634304155705D002800D102E09B
:100F80006D1C0C2DF4D300BF00213F20015502E061
:100F9000002134200155052F00D30427E762276480
:100FA00000206064201D00F080F92046183000F019
:100FB0007CF924610520C01BA06164620021A1644A
:100FC0004C200155049A0199009800F03DF92060E9
:100FD0000B98002801D00B98046005B0F0BD00000C
:100FE00010B5002406E0142161430E4A881800F071
:100FF0004FF9641C052CF6D30B4800F049F90B4857
:1010000000F046F90A4800F043F90A4800F040F9B8
:10101000094800F03DF904480849086003480849B8
:10102000086010BD6C000020D0000020E40000200B
:10103000F80000200C010020200100200C000020FE
:101040001000002010B50146164800E00068036853
:101050008B42FBD3024643689B188B4204D1436802
:101060004C681B19436001460A464B689B1804688C
:10107000A34211D10C4C03682468A34208D04B68EA
:10108000046864681B194B6003681B680B6005E00B
:10109000054B1B680B6001E003680B60884200D0C1
:1010A000016010BD48000020500000200A48006880
:1010B0000068002801D1012000E00020002804D0B1
:1010C0000020C0430549086005E003480068C06887
:1010D00000680249086070470C00002038000020BA
:1010E00007480068401C002801D1012000E00020D2
:1010F000002802D172B600BFFEE772B600BFFEE75D
:1011000068000020F8B504460020009000F0E0F9E7
:1011100047480068002801D1FFF7C0FE4548006835
:101120002040002873D1002C21D020460830A04256
:101130001DD908346007400F002819D06007400F00
:101140000821081A0019A0420FD96007400F081A99
:1011500004196007400F002801D1012000E00020A1
:10116000002805D172B600BFFEE7002400E000248D
:10117000002C4CD030480068844248D82F4E30466E
:10118000056801E02E462D686868A04202D22868F2
:101190000028F7D126480068854238D030680830EA
:1011A0000090286830606868001B102813D92F1938
:1011B0007807400F002801D1012000E0002000281E
:1011C00002D172B600BFFEE76868001B78606C60F1
:1011D0003846FFF737FF184968680968081A164942
:1011E00008600846006816490968884203D2124818
:1011F0000068134908600F49686809680843686017
:10120000002028600F480068401C0E49086000F06C
:101210008FFA00984007400F002801D1012000E01C
:101220000020002802D172B600BFFEE70098F8BD8A
:1012300050000020640000205400002048000020DE
:10124000580000205C000020001F01231B060360E3
:10125000001F0160001F034B036014380260203838
:1012600070470000E110000001460A694B68886879
:1012700098608B68486858605068884201D18868D7
:101280005060002008611068401E106010687047B0
:101290000146083141600021C9438160014608319F
:1012A000C160016100210160704700210161704748
:1012B00010B502460B685C1C002C01D1106907E0D8
:1012C0001046083000E04068446824689C42FAD91F
:1012D00044684C604C68A160886041600A61146891
:1012E000641C146010BD42684A6093688B60936808
:1012F00059609160086103685B1C036070470000DF
:1013000072B605480068401C03490860BFF34F8F60
:10131000BFF36F8F70470000680000200848006826
:10132000002802D172B600BFFEE705480068401EE3
:101330000349086008460068002800D162B670477B
:101340006800002070B506463546002E3AD0083DAC
:101350002C461D49606809680840002801D001201A
:1013600000E00020002802D172B600BFFEE720682E
:10137000002801D1012000E00020002802D172B62F
:1013800000BFFEE71049606809680840002819D0CE
:101390002068002816D10C4960680968884360609D
:1013A00000F096F809496068096840180749086024
:1013B0002046FFF747FE06480068401C04490860C5
:1013C00000F0B6F970BD0000640000205400002059
:1013D0006000002010B500200749086188617D2168
:1013E000C90006480068FEF7D1FE401E0249486168
:1013F0000720086110BD000000E000E004000020AC
:101400000120000703494860BFF34F8FBFF36F8F80
:101410007047000000ED00E070B504460025002C88
:1014200014D00D480068002801D1012000E0002000
:10143000002802D172B600BFFEE700F049F8002193
:101440002046FFF76DFC00F073F90546002D01D131
:10145000FFF7D6FF70BD0000440000201CB5144803
:1014600000210B463C220091019012A1134800F08C
:1014700093F80446012C0DD172B60020C0431049E8
:10148000086001200F49086000200F49086000F043
:1014900067F80AE0601C002801D0012000E000206D
:1014A000002802D172B600BFFEE7084800681CBDE4
:1014B0003C00002049444C4500000000190F00008A
:1014C00038000020240000201C00002040000020E4
:1014D00002480068401C0149086070474400002031
:1014E0001A480068002803D00120194908602CE040
:1014F0000020174908601748016805E0002902D15B
:1015000072B600BFFEE7491E14204843124A105825
:10151000002801D1012000E000200028EED1142293
:101520004A430D4BD0184268526842600246083266
:101530004368934202D14268526842604268D2686E
:10154000064B1A600348016000BF7047440000204A
:101550002C000020200000206C000020080000204B
:1015600010B50B48006AFF210904084308490862C6
:101570000846006AFF210906084305490862FFF78B
:1015800029FF002003490860FEF7A6FD002010BDDA
:1015900000ED00E068000020FFB585B01746B800F8
:1015A000FFF7B0FD0646002E0BD05020FFF7AAFD36
:1015B0000446002C01D0266304E03046FFF7C2FE4B
:1015C00000E00024002C10D000220F990E986B46EA
:1015D00013C303923A46089B06990598FFF7A8FCA7
:1015E0002046FFF7DBFB012501E00025ED432846FF
:1015F00009B0F0BDF8B5002000904248006800280E
:1016000078D141480068451C3F480560002D1CD139
:101610003E4800680068002801D1012000E0002059
:10162000002802D172B600BFFEE738480768384884
:101630000068364908603648076036480068401C34
:1016400034490860FFF732FD00BF33480068854227
:101650003DD300BF2D4800680068002801D101205B
:1016600000E00020002804D00020C0432A49086080
:101670002CE026480068C068C4686668B54202D29B
:101680002548066022E0201DFFF7EEFDA06A002835
:1016900003D020461830FFF7E7FD2049E06A0968CB
:1016A000884202D91D49E06A08601422E16A514368
:1016B0001B4A8818211DFFF716FE1A49E06A0968BF
:1016C000C96A8842C6D301200090C3E700BF15480D
:1016D0000068C06A1421484311490858012801D9FB
:1016E0000120009010480068002801D001200090DF
:1016F00005E0FFE70D480068401C0C4908600098B1
:10170000F8BD0000440000201C0000200C00002058
:1017100010000020300000203800002020000020B1
:101720006C000020080000202C0000202800002071
:1017300070B50024002632480068002802D172B635
:1017400000BFFEE7FFF7DCFD2D480068401E2C4976
:1017500008600846006800284DD12A480068002823
:1017600049D022E02848C068C46820461830FFF7F6
:101770007BFD201DFFF778FD2449E06A0968884257
:1017800002D92249E06A08601422E16A5143204AE2
:101790008818211DFFF7A7FD1E49E06A0968C96A7C
:1017A000884202D301201C490860174800680028BD
:1017B00001D1012000E000200028D3D0002C01D06E
:1017C000FFF774FC15480568002D0DD000BFFFF72A
:1017D00011FF002802D001200F4908606D1E002D66
:1017E000F5D100200D4908600B480068002802D0A0
:1017F0000126FFF705FEFFF791FD304670BD0000A2
:101800004400002018000020F800002020000020E4
:101810006C000020080000202C0000202800002080
:1018200000093D0000127A000024F40040865101B6
:1018300000366E010080009658180000000000205D
:101840006C000000940C0000C41800006C00002024
:10185000CC220000A40C00000000000000093D00A4
:101860000000000000000000000000000000000078
:101870000000000000000000000000000000000068
:101880000000000000000000000000000000000058
:101890000000000000000000040000000000000044
:1018A0000000000000000000000000000000000038
:1018B0000000000000000000000000000000000028
:0418C000AAAAAAAA7C
:04000005000000C136
:00000001FF
