:020000040000FA
:1000000008020020D9000000F300000021030000D6
:1000100000000000000000000000000000000000E0
:10002000000000000000000000000000F7000000D9
:100030000000000000000000F9000000AF03000015
:10004000570300005F030000670300007303000014
:10005000E301000065090000850900009109000026
:100060003F030000470300007F0300008B030000F4
:100070002F030000370300004D0900005509000060
:100080005D090000FD0000006D0900007509000019
:100090007D0900004F030000B9090000FD000000C9
:1000A00097010000FD000000A50900009D09000067
:1000B000CF010000FD00000029020000D701000070
:1000C0000448854600F04EF80048004789010000CA
:1000D000C046C0460802002009480A4A002100A183
:1000E000814200D902440848026008488047084815
:1000F0000047FEE7FEE7FEE7FEE7FEE7FEE700005B
:10010000000000200000000008ED00E011090000E0
:10011000C100000030B50B4601460020202201241A
:1001200009E00D46D5409D4205D31D469540491B2B
:100130002546954040191546521E002DF1DC30BD74
:1001400003460B439B0703D009E008C9121F08C0F0
:10015000042AFAD203E00B780370401C491C521E9B
:10016000F9D27047064C0125064E05E0E36807CC3E
:100170002B430C3C98471034B442F7D3FFF7A4FF4D
:10018000300B0000500B000010B500F0C1FB00F078
:10019000ABFC002010BD10B5C046C046C046C046EE
:1001A00010BD1CB501211C2000F012FB0020694687
:1001B0004870C8700120087104030321204600F034
:1001C0004FF86A460321204600F054F81CBD10B5D4
:1001D000C046C04610BD10B5C046C046C046C04669
:1001E00010BD10B5C046C04610BD7CB501211F2012
:1001F00000F0EEFA012000F01DF8042000F0FCFAF7
:10020000002469460C7004254D70032088700C2072
:10021000C870684600F05AFA69460D714C718C71CD
:1002200001A800F0C8F87CBD10B5C046C046C04665
:10023000C04610BD10B5024600200749054BCB62F1
:10024000064BCB620B6A0C249207A343120F134395
:100250000B6210BD5A5A000000000240A5A5000024
:1002600010B5034B0122C01800F095F8002010BD16
:10027000140D024070B504460E4615462048002273
:100280003146201800F087F8B1001E4A00200919F5
:10029000891808601A482A78001F3146201800F093
:1002A0007AF817486A780C383146201800F073F84D
:1002B0001348AA7810303146201800F06CF8104826
:1002C000EA7814303146201800F065F80C482A7995
:1002D00018303146201800F05EF809486A7920305D
:1002E0003146201800F057F8074988680122D203E8
:1002F0009043AA79D207120C10438860002070BD89
:100300000C0D0240000C0240000F024010B5034BE0
:100310000122C01800F03FF8002010BD100D02406F
:1003200008B50020009000980028FCD008BD10B54A
:10033000C046C04610BD10B5C046C04610BD10B581
:10034000C046C04610BD10B5C046C04610BD10B571
:10035000C046C04610BD10B5C046C04610BD10B561
:10036000C046C04610BD10B5C046C046C046C046D7
:1003700010BD10B5C046C046C046C04610BD10B541
:10038000C046C046C046C04610BD10B5C046C046B7
:10039000C046C04610BD01238B40012A03D001682E
:1003A000994301607047016819430160704710B5B7
:1003B000C046C04610BD70B5044600252078030035
:1003C00000F026FB051C040B0F171B00032000F098
:1003D00073FA032000F040FA10E0032000F02CFA3A
:1003E0000CE00321084600F075FA032000F042FA01
:1003F00004E0072000F0DCF900E00425207801216A
:1004000000F00CF8207800F043FA607800F03AF938
:10041000A07800F049F9284670BD0000F3B581B01E
:100420000C46002600F0E8FA002C00D00124424DD2
:100430002F6A0198E90303283ED006DC00280CD07F
:10044000012817D0022804D129E004284AD04828DE
:1004500062D004262F623046FEBD2868E1074008BE
:100460004000C90F08432860002CF3D0E86800055D
:10047000FAD5EFE7286A08432862304AD06803219A
:100480000843D060286802218843E107890F0843A8
:100490002860002CDED028694006FAD5DAE7286803
:1004A00004218843E107490F08432860002CD1D07C
:1004B0006869C004FAD5CDE7286A08432862204A53
:1004C000D068032189030843D06028680821884345
:1004D000E107090F08432860002CBBD0A86940063B
:1004E000FAD5B7E7286A0121090408432862154AAA
:1004F0001068012108431060142000F0A5FA286854
:1005000010218843E107C90E08432860002CA1D0C0
:10051000E86B4003FAD59DE70748403081698214B3
:100520009143E207D20C11438161002C92D0816982
:100530000905FAD58EE7000000200040401D02406A
:10054000800D02400024004010B58AB0002414221F
:10055000484905A8FFF7F4FD4648001F00680490CD
:100560000020019002900390434801886A469181DF
:100570004188518181881181C088D0803E482030D7
:10058000008890803D4908680006420F3C481300EF
:1005900000F03EFA05042A2C393C6900C8686A4616
:1005A00040059289400D904201D1099C5BE0C868EA
:1005B0006A4640055289400D904201D1089C52E0A4
:1005C000C8686A4640051289400D904201D1079CD7
:1005D00049E0C8686A464005D288400D904201D182
:1005E000069C40E0059C3EE004463CE0684680886E
:1005F0004A699205920D904202D16846448A32E0DF
:100600006846048A2FE00124E4032CE0CA6BD2433D
:10061000920724D168468089CA685205520D9042DB
:1006200001D109981BE068464089CA685205520DFD
:10063000904201D1089812E068460089CA685205C4
:10064000520D904201D1079809E06846C088CA68F7
:100650005205520D904201D1069800E00598CA6BF0
:10066000D205140F444308684005410F2046C84096
:100670000AB010BD1C0B0000000C10000020004050
:1006800000127A0010B5044600F0B6F9054A116868
:100690000720000281436007400D014311600020E4
:1006A00010BD00000020004010B5044600F0A4F981
:1006B000054A11680320C0028143A007C00C014312
:1006C0001160002010BD0000002000401EB5002277
:1006D000002100910191029131490B886C462381E0
:1006E0004B88E3808B88A380C988618083782D49FB
:1006F000032B07D0C3782C4C63432C4CA3422BD93B
:1007000006201EBD6B461B89CC686405640DA342A0
:1007100002D1C378022B1DD86B46DB88CC686405F8
:10072000640DA34202D1C378022B13D86B469B8879
:10073000CC686405640DA34202D1C378032B09D8A9
:100740006B465B88CC686405640DA34204D1C37812
:10075000062B01D906201EBDCB6B03246403A343E3
:100760000478A407640C2343CB63CB6B1C24A34302
:1007700044786407E40E2343CB63CB6BFF24E1345E
:10078000A343C4782407E40D2343CB63CB6B807869
:100790009B089B008007800F0343CB6310461EBD60
:1007A000000C10000020004000127A00006CDC02F7
:1007B00010B502460020054BD96B0724E40352070D
:1007C000A143920B1143D96310BD000000200040EB
:1007D00010B50A46810605D5DF2101400548FFF71F
:1007E000DAFD04E001460348001FFFF7D4FD0020B6
:1007F00010BD0000242000400D4948280BD04000C7
:10080000401800880B494005CA68400DD20AD20240
:100810000243CA6009E0488906498005800D4031DD
:100820008A69920A920202438A610020704700009E
:10083000000C10000020004010B502460020054BBF
:1008400059690324A4029207A143120D114359616F
:1008500010BD00000020004010B502460020044BEF
:10086000196930249207A143920E1143196110BDFA
:100870000020004010B502460020044B9969302446
:100880009207A143920E1143996110BD00200040D0
:1008900070B50446002500F0AFF806490868E0226C
:1008A00090436207120E1043086000F029F82846B2
:1008B00070BD00000020004001460020044B1A6972
:1008C000890792089200890F0A431A617047000055
:1008D0000020004030B503460020084A94690C25EA
:1008E0009B07AC431B0F1C439461936989079B08CA
:1008F0009B00890F0B43936130BD00000020004036
:1009000010B5FFF721FE0149086010BD000000206E
:1009100010B50C48408881050B48890D4269920A40
:1009200092020A434261074920390989C268490590
:10093000490DD20AD2020A43C260FFF7E1FF00F07C
:100940003FF810BD200C10000020004010B5C0463C
:10095000C04610BD10B5C046C04610BD10B5C0465B
:10096000C04610BD10B5C046C04610BD10B5C0464B
:10097000C04610BD10B5C046C04610BD10B5C0463B
:10098000C04610BD10B5C046C046C046C04610BDEA
:1009900010B5C046C046C046C04610BD10B5C046E2
:1009A000C04610BD10B5C046C046C046C046C04691
:1009B000C046C046C04610BD10B5C046C04610BDBA
:1009C00010B50A490A6A086ACB0318430862084846
:1009D000C368084C2340C3600468B0231C43046010
:1009E000046A1C4304620A6210BD0000002000403B
:1009F000401D02404FFF0000034802498160034947
:100A0000816070475A5A000000200040A5A50000F0
:100A100030B47446641E2578641CAB4200D21D4677
:100A2000635D5B00E31830BC184702E008C8121F82
:100A300008C1002AFAD170477047002001E001C1C7
:100A4000121F002AFBD17047F8B504460F4D0E481F
:100A500068610026AE61052028610D480127006805
:100A60003F06009008E0AE610A490098FFF752FB8C
:100A7000381AA9698142FCD8641E601CF3D1286928
:100A8000400840002861F8BDFFFFFF0000E000E0E3
:100A900000000020A0860100F8B50446104D0F4864
:100AA00068610026AE61052028610E4801270068B4
:100AB0003F06009009E0AE617D21C9000098FFF774
:100AC00029FB381AA9698142FCD8641E601CF2D146
:100AD0002869400840002861F8BD0000FFFFFF00C2
:100AE00000E000E000000020FFF77FFBFFF759FB6C
:100AF00001252D037D24E40003212846FFF706FC91
:100B00002046FFF7C9FF03212846FFF7A9FB20462F
:100B1000FFF7C2FFF0E700000080009600093D00EB
:100B200000127A000024F4004086510100366E0164
:100B3000500B000000000020040000002A0A000002
:100B4000540B000004000020040200003A0A0000D8
:040B500000093D005B
:04000005000000C136
:00000001FF
