:020000040000FA
:1000000008020020D5000000EF000000F10200000F
:1000100000000000000000000000000000000000E0
:10002000000000000000000000000000F3000000DD
:100030000000000000000000F50000007F03000049
:1000400029030000310300003903000045030000CC
:10005000D101000061080000810800008D08000047
:100060001103000019030000510300005D030000AC
:1000700001030000090300004908000051080000C6
:1000800059080000F900000069080000710800002C
:100090007908000021030000B5080000F900000005
:1000A00083010000F9000000A10800009908000089
:1000B000BD010000F900000011020000C5010000B0
:1000C0000348854600F044F80048004775010000E9
:1000D0000802002009480A4A002100A1814200D9F3
:1000E0000244084802600848804708480047FEE785
:1000F000FEE7FEE7FEE7FEE7FEE700000000002067
:100100000000000008ED00E0D5070000C10000007D
:1001100070B50446002903D000202022012310E0FE
:10012000002801D00020C043C046C0460DE025464F
:10013000D5408D4205D30D469540641B1D46954024
:1001400040191546521E002DF1DC214670BD0000FD
:10015000064C0125064E05E0E36807CC2B430C3C1A
:1001600098471034B442F7D3FFF7AEFF9C09000064
:10017000BC09000080B500F02DFB00F0E7FB00207B
:1001800080BD80B5C046C046C046C04680BD7CB577
:100190001C200124214600F0D5FA6D462C71002068
:1001A000E8706870240303262046314600F046F8C4
:1001B000204631462A4600F04BF87CBD80B5C0464B
:1001C000C04680BD80B5C046C046C046C04680BD62
:1001D00080B5C046C04680BD1CB51F200124214605
:1001E00000F0B0FA204600F019F80424204600F090
:1001F000B9FA06480090684600F04EFA01A80021BE
:100200008170048000F0C0F81CBDC0460004030CDF
:1002100080B5C046C046C046C04680BD0649D04AEB
:10022000CA60D04ACA600A680C239A438007000F4C
:1002300010180860002070472000024080B5034A73
:100240008018012200F090F8002080BD140D0240BB
:10025000FEB515460E4601901C49471838460C302D
:100260000024314622460294194B9847B000019968
:10027000081818494450384608302A783146144C3A
:10028000A0476A7838463146A04738461C30AA78DD
:100290003146A04738462030EA783146A0473846F4
:1002A00024302A793146A0472C376A7938463146BE
:1002B000A047A8790121C903074A13688B43C007E7
:1002C000000CC01810600298FEBDC046000D024030
:1002D00069030000000C0240080F024080B5034A89
:1002E0008018012200F040F8002080BD100D02406F
:1002F00081B00020009000980028FCD001B0704729
:1003000080B5C046C04680BD80B5C046C04680BDF1
:1003100080B5C046C04680BD80B5C046C04680BDE1
:1003200080B5C046C04680BD80B5C046C04680BDD1
:1003300080B5C046C04680BD80B5C046C046C046F8
:10034000C04680BD80B5C046C046C046C04680BDE0
:1003500080B5C046C046C046C04680BD80B5C046D8
:10036000C046C046C04680BD01238B40012A02D151
:100370000168194301E0016899430160704780B545
:10038000C046C04680BD0000B0B504460578042DC7
:1003900018D8A80001A108588746C04601040000EB
:1003A000B1030000C9030000D7030000F3030000FD
:1003B0001B48016803220A430260016830220A4395
:1003C00002601CE004251BE00320800214494A68F7
:1003D00002434A6013E0124881680C220A4382609B
:1003E000816803220A438260816830220A43826066
:1003F00005E00720C0030A49CA6A0243CA62002511
:100400002078012100F00EF8207800F0C5F960781E
:1004100000F022F9A07800F02FF92846B0BDC046C0
:1004200010200040F8B50C46E44DE549A960E549C7
:10043000A9602E6A274604281DD8800001A108580B
:100440008746C046590400009D040000CF04000008
:10045000F104000025050000601E87412868012185
:100460008843C01928600020002C77D0C902EA68B0
:100470000A42FCD072E048286FD1601E87413803E1
:1004800001210A03AB6D93431818A8650020002CC6
:1004900064D0C902AA6D0A42FCD05FE001200007C7
:1004A000296A014329623248016803220A43026033
:1004B000601E87417800296802229143081828604D
:1004C0000020002C4AD029694906FCD546E0601E70
:1004D0008741B80029680422914308182860002049
:1004E000002C3BD0012109036A690A42FCD035E0A7
:1004F00001200007296A01432962032080031B4968
:100500000A6802430A60601E8741F80029680822D1
:100510009143081828600020002C1FD0A9694906C3
:10052000FCD51BE0012001042A6A0A432A620E4915
:100530000A6802430A60142000F0C0F9601E874177
:100540003801296810229143081828600020002CE7
:1005500004D0E96B4903FCD500E004202E62F8BD0D
:100560005A5A0000A5A50000002400408C0D02404E
:100570004C1D0240FCB5874806884588818801915A
:10058000C488078CAA4A11460C3908680006430F34
:10059000042B0FD8009469487B441B795B009F446F
:1005A000024E0B1013001368A34F3B40B34217D108
:1005B000254844E0002042E090689C4A0240BA424C
:1005C00014D00120C0033AE0136B03241C40032C19
:1005D00030D11368984F3B40B3420AD11A4B2AE0FE
:1005E00013683B40AB420AD1184828E04B20400238
:1005F00025E013683B40AB4208D1144B1BE0136865
:100600003B40019CA34208D1114818E013683B40CD
:10061000019CA34208D10E4B0DE012683A40009BAA
:100620009A420CD00B480AE013683B40009CA3425E
:1006300000D008480346106BC005000F58430968F6
:100640004905490FC840FCBD00366E014086510186
:100650000024F40000093D005849594A8A60594A6B
:100660008A60072212020B6893434007400D181856
:10067000086000207047C0465049514A8A60514A7C
:100680008A600322D2020B6893438007C00C1818BB
:10069000086000207047C046F0B53E490E884D887E
:1006A0008C88C9888278032A40D1614A1768624BD6
:1006B0001F40B74202D1C678022E3DD816681E40B0
:1006C000AE4202D1C578022D36D815681D40A5422C
:1006D00002D1C478032C2FD812681A408A4202D162
:1006E000C178062928D8037803214C03504A156B9A
:1006F000A5439B075B0C5B1913634378146B1C25A4
:10070000AC435B07DB0EE3181363C3780F2464016B
:10071000156BA5431B07DB0D5B191363807808403D
:10072000136B8B43181810630020F0BDC178034A87
:100730004A4303498A42D6D90620F0BD00127A0006
:10074000006CDC0280B50A4601468006044802D5EA
:10075000DF231940001DFFF707FE002080BDC046C3
:10076000202000400B4A3249482808D150892F4A9E
:100770000240C86C2F4B03409818C86408E0400042
:10078000105A2D4A024008682C4B03409818086004
:1007900000207047000C100080B50849084A8A60A4
:1007A000084A8A600A68E0239A434007000E10183E
:1007B000086000F009F8002080BDC046002000401D
:1007C0005A5A0000A5A5000080B5FFF7D3FE5E4988
:1007D000086080BD10B51448418B144A0A40144C7F
:1007E000A168144B0B409918A16000881249014080
:1007F0002068124A024050182060FFF7E5FF606948
:100800000121090762690A4362610D49CA680D4BFB
:100810001340CB600A68B0231A430A600A6A1A437D
:100820000A62606110BDC046080C1000FF030000A2
:100830000C20004000FCFFFFFF07000000F8FFFF56
:10084000401D02404FFF000080B5C046C04680BD3D
:1008500080B5C046C04680BD80B5C046C04680BD9C
:1008600080B5C046C04680BD80B5C046C04680BD8C
:1008700080B5C046C04680BD80B5C046C04680BD7C
:1008800080B5C046C046C046C04680BD80B5C046A3
:10089000C046C046C04680BD80B5C046C04680BD8B
:1008A00080B5C046C046C046C046C046C046C046E9
:1008B000C04680BD80B5C046C04680BDF8B5044680
:1008C0001F4E204870600027B760052030600B4D38
:1008D000002C0DD0641EB7601B4800682946FFF746
:1008E00017FC1849081A401CB1688142FCD8EFE790
:1008F0003068012188433060F8BDC046A086010001
:10090000F8B504460E4D0F4868600027AF6005201B
:1009100028600D4E002C0DD0641EAF607D20C100FC
:100920003068FFF7F5FB0749081A401CA9688142A7
:10093000FCD8EFE72868012188432860F8BDC0464D
:1009400010E000E0FFFFFF0000000020FFF744FC84
:10095000FFF71DFC012004037D20C500032620466F
:100960003146FFF7BBFC2846FFF7CAFF2046314659
:10097000FFF764FC2846FFF7C3FFEFE702E008C873
:10098000121F08C1002AFAD170477047002001E009
:1009900001C1121F002AFBD170470000C0090000EE
:1009A00000000020080000007C090000C8090000C9
:1009B00008000020000200008C0900000000000078
:0809C00000093D0000000000E9
:04000005000000C136
:00000001FF
